{
  "address": "0x722Fca8795301487683695Ed95d626A1d0E1069d",
  "abi": [
    {
      "inputs": [
        {
          "internalType": "uint256",
          "name": "_lockTime",
          "type": "uint256"
        },
        {
          "internalType": "address",
          "name": "dataFeedAddr",
          "type": "address"
        }
      ],
      "stateMutability": "nonpayable",
      "type": "constructor"
    },
    {
      "inputs": [],
      "name": "dataFeed",
      "outputs": [
        {
          "internalType": "contract AggregatorV3Interface",
          "name": "",
          "type": "address"
        }
      ],
      "stateMutability": "view",
      "type": "function"
    },
    {
      "inputs": [],
      "name": "fund",
      "outputs": [],
      "stateMutability": "payable",
      "type": "function"
    },
    {
      "inputs": [
        {
          "internalType": "address",
          "name": "",
          "type": "address"
        }
      ],
      "name": "fundersToAmount",
      "outputs": [
        {
          "internalType": "uint256",
          "name": "",
          "type": "uint256"
        }
      ],
      "stateMutability": "view",
      "type": "function"
    },
    {
      "inputs": [],
      "name": "getChainlinkDataFeedLatestAnswer",
      "outputs": [
        {
          "internalType": "int256",
          "name": "",
          "type": "int256"
        }
      ],
      "stateMutability": "view",
      "type": "function"
    },
    {
      "inputs": [],
      "name": "getFund",
      "outputs": [],
      "stateMutability": "nonpayable",
      "type": "function"
    },
    {
      "inputs": [],
      "name": "getFundSuccess",
      "outputs": [
        {
          "internalType": "bool",
          "name": "",
          "type": "bool"
        }
      ],
      "stateMutability": "view",
      "type": "function"
    },
    {
      "inputs": [],
      "name": "owner",
      "outputs": [
        {
          "internalType": "address",
          "name": "",
          "type": "address"
        }
      ],
      "stateMutability": "view",
      "type": "function"
    },
    {
      "inputs": [],
      "name": "refund",
      "outputs": [],
      "stateMutability": "nonpayable",
      "type": "function"
    },
    {
      "inputs": [
        {
          "internalType": "address",
          "name": "_erc20Addr",
          "type": "address"
        }
      ],
      "name": "setErc20Addr",
      "outputs": [],
      "stateMutability": "nonpayable",
      "type": "function"
    },
    {
      "inputs": [
        {
          "internalType": "address",
          "name": "funder",
          "type": "address"
        },
        {
          "internalType": "uint256",
          "name": "amountToUpdate",
          "type": "uint256"
        }
      ],
      "name": "setFunderToAmount",
      "outputs": [],
      "stateMutability": "nonpayable",
      "type": "function"
    },
    {
      "inputs": [
        {
          "internalType": "address",
          "name": "newOwner",
          "type": "address"
        }
      ],
      "name": "transferOwnership",
      "outputs": [],
      "stateMutability": "nonpayable",
      "type": "function"
    }
  ],
  "transactionHash": "0x2778271159f12fac7656561bb7bc0b64c4a3eed834f6c94de1787ab08df1d220",
  "args": [
    180,
    "0x694AA1769357215DE4FAC081bf1f309aDC325306"
  ],
  "numDeployments": 1,
  "solcInputHash": "941ef8b034f8ece9ef6e1c445ee9d6f6",
  "bytecode": "0x608060405234801561001057600080fd5b5060405161168138038061168183398181016040528101906100329190610162565b80600160006101000a81548173ffffffffffffffffffffffffffffffffffffffff021916908373ffffffffffffffffffffffffffffffffffffffff16021790555033600260006101000a81548173ffffffffffffffffffffffffffffffffffffffff021916908373ffffffffffffffffffffffffffffffffffffffff160217905550426003819055508160048190555050506101a2565b600080fd5b6000819050919050565b6100e1816100ce565b81146100ec57600080fd5b50565b6000815190506100fe816100d8565b92915050565b600073ffffffffffffffffffffffffffffffffffffffff82169050919050565b600061012f82610104565b9050919050565b61013f81610124565b811461014a57600080fd5b50565b60008151905061015c81610136565b92915050565b60008060408385031215610179576101786100c9565b5b6000610187858286016100ef565b92505060206101988582860161014d565b9150509250929050565b6114d0806101b16000396000f3fe60806040526004361061009c5760003560e01c80639f883a05116100645780639f883a051461014e578063b60d42881461018b578063bea4dfb514610195578063d39cf006146101c0578063da4658e0146101e9578063f2fde38b146102145761009c565b806313ffff01146100a1578063590e1ae3146100ca5780638da5cb5b146100e15780638edd6eb61461010c5780639e42ff9014610123575b600080fd5b3480156100ad57600080fd5b506100c860048036038101906100c39190610c4d565b61023d565b005b3480156100d657600080fd5b506100df610311565b005b3480156100ed57600080fd5b506100f66105c2565b6040516101039190610c89565b60405180910390f35b34801561011857600080fd5b506101216105e8565b005b34801561012f57600080fd5b50610138610834565b6040516101459190610d03565b60405180910390f35b34801561015a57600080fd5b5061017560048036038101906101709190610c4d565b61085a565b6040516101829190610d37565b60405180910390f35b610193610872565b005b3480156101a157600080fd5b506101aa61095b565b6040516101b79190610d6b565b60405180910390f35b3480156101cc57600080fd5b506101e760048036038101906101e29190610db2565b6109fc565b005b3480156101f557600080fd5b506101fe610ad3565b60405161020b9190610e0d565b60405180910390f35b34801561022057600080fd5b5061023b60048036038101906102369190610c4d565b610ae6565b005b600260009054906101000a900473ffffffffffffffffffffffffffffffffffffffff1673ffffffffffffffffffffffffffffffffffffffff163373ffffffffffffffffffffffffffffffffffffffff16146102cd576040517f08c379a00000000000000000000000000000000000000000000000000000000081526004016102c490610eab565b60405180910390fd5b80600560006101000a81548173ffffffffffffffffffffffffffffffffffffffff021916908373ffffffffffffffffffffffffffffffffffffffff16021790555050565b6004546003546103219190610efa565b421015610363576040517f08c379a000000000000000000000000000000000000000000000000000000000815260040161035a90610f7a565b60405180910390fd5b683635c9adc5dea0000061037647610bba565b106103b6576040517f08c379a00000000000000000000000000000000000000000000000000000000081526004016103ad90610fe6565b60405180910390fd5b60008060003373ffffffffffffffffffffffffffffffffffffffff1673ffffffffffffffffffffffffffffffffffffffff1681526020019081526020016000205490506000810361043c576040517f08c379a000000000000000000000000000000000000000000000000000000000815260040161043390611052565b60405180910390fd5b60045460035461044c9190610efa565b42101561048e576040517f08c379a000000000000000000000000000000000000000000000000000000000815260040161048590610f7a565b60405180910390fd5b60003373ffffffffffffffffffffffffffffffffffffffff166000803373ffffffffffffffffffffffffffffffffffffffff1673ffffffffffffffffffffffffffffffffffffffff168152602001908152602001600020546040516104f2906110a3565b60006040518083038185875af1925050503d806000811461052f576040519150601f19603f3d011682016040523d82523d6000602084013e610534565b606091505b5050809150508061057a576040517f08c379a000000000000000000000000000000000000000000000000000000000815260040161057190611104565b60405180910390fd5b60008060003373ffffffffffffffffffffffffffffffffffffffff1673ffffffffffffffffffffffffffffffffffffffff168152602001908152602001600020819055505050565b600260009054906101000a900473ffffffffffffffffffffffffffffffffffffffff1681565b6004546003546105f89190610efa565b42101561063a576040517f08c379a000000000000000000000000000000000000000000000000000000000815260040161063190610f7a565b60405180910390fd5b600260009054906101000a900473ffffffffffffffffffffffffffffffffffffffff1673ffffffffffffffffffffffffffffffffffffffff163373ffffffffffffffffffffffffffffffffffffffff16146106ca576040517f08c379a00000000000000000000000000000000000000000000000000000000081526004016106c190610eab565b60405180910390fd5b60006106d547610bba565b9050683635c9adc5dea00000811015610723576040517f08c379a000000000000000000000000000000000000000000000000000000000815260040161071a90611170565b60405180910390fd5b60003373ffffffffffffffffffffffffffffffffffffffff1647604051610749906110a3565b60006040518083038185875af1925050503d8060008114610786576040519150601f19603f3d011682016040523d82523d6000602084013e61078b565b606091505b505080915050806107d1576040517f08c379a00000000000000000000000000000000000000000000000000000000081526004016107c890611104565b60405180910390fd5b60008060003373ffffffffffffffffffffffffffffffffffffffff1673ffffffffffffffffffffffffffffffffffffffff168152602001908152602001600020819055506001600560146101000a81548160ff0219169083151502179055505050565b600160009054906101000a900473ffffffffffffffffffffffffffffffffffffffff1681565b60006020528060005260406000206000915090505481565b670de0b6b3a764000061088434610bba565b10156108c5576040517f08c379a00000000000000000000000000000000000000000000000000000000081526004016108bc906111dc565b60405180910390fd5b6004546003546108d59190610efa565b4210610916576040517f08c379a000000000000000000000000000000000000000000000000000000000815260040161090d90611248565b60405180910390fd5b346000803373ffffffffffffffffffffffffffffffffffffffff1673ffffffffffffffffffffffffffffffffffffffff16815260200190815260200160002081905550565b600080600160009054906101000a900473ffffffffffffffffffffffffffffffffffffffff1673ffffffffffffffffffffffffffffffffffffffff1663feaf968c6040518163ffffffff1660e01b815260040160a060405180830381865afa1580156109cb573d6000803e3d6000fd5b505050506040513d601f19601f820116820180604052508101906109ef91906112eb565b5050509150508091505090565b600560009054906101000a900473ffffffffffffffffffffffffffffffffffffffff1673ffffffffffffffffffffffffffffffffffffffff163373ffffffffffffffffffffffffffffffffffffffff1614610a8c576040517f08c379a0000000000000000000000000000000000000000000000000000000008152600401610a83906113d8565b60405180910390fd5b806000808473ffffffffffffffffffffffffffffffffffffffff1673ffffffffffffffffffffffffffffffffffffffff168152602001908152602001600020819055505050565b600560149054906101000a900460ff1681565b600260009054906101000a900473ffffffffffffffffffffffffffffffffffffffff1673ffffffffffffffffffffffffffffffffffffffff163373ffffffffffffffffffffffffffffffffffffffff1614610b76576040517f08c379a0000000000000000000000000000000000000000000000000000000008152600401610b6d90610eab565b60405180910390fd5b80600260006101000a81548173ffffffffffffffffffffffffffffffffffffffff021916908373ffffffffffffffffffffffffffffffffffffffff16021790555050565b600080610bc561095b565b90506305f5e1008184610bd891906113f8565b610be29190611469565b915050919050565b600080fd5b600073ffffffffffffffffffffffffffffffffffffffff82169050919050565b6000610c1a82610bef565b9050919050565b610c2a81610c0f565b8114610c3557600080fd5b50565b600081359050610c4781610c21565b92915050565b600060208284031215610c6357610c62610bea565b5b6000610c7184828501610c38565b91505092915050565b610c8381610c0f565b82525050565b6000602082019050610c9e6000830184610c7a565b92915050565b6000819050919050565b6000610cc9610cc4610cbf84610bef565b610ca4565b610bef565b9050919050565b6000610cdb82610cae565b9050919050565b6000610ced82610cd0565b9050919050565b610cfd81610ce2565b82525050565b6000602082019050610d186000830184610cf4565b92915050565b6000819050919050565b610d3181610d1e565b82525050565b6000602082019050610d4c6000830184610d28565b92915050565b6000819050919050565b610d6581610d52565b82525050565b6000602082019050610d806000830184610d5c565b92915050565b610d8f81610d1e565b8114610d9a57600080fd5b50565b600081359050610dac81610d86565b92915050565b60008060408385031215610dc957610dc8610bea565b5b6000610dd785828601610c38565b9250506020610de885828601610d9d565b9150509250929050565b60008115159050919050565b610e0781610df2565b82525050565b6000602082019050610e226000830184610dfe565b92915050565b600082825260208201905092915050565b7f746869732066756e6374696f6e2063616e206f6e6c792062652063616c6c656460008201527f206279206f776e65720000000000000000000000000000000000000000000000602082015250565b6000610e95602983610e28565b9150610ea082610e39565b604082019050919050565b60006020820190508181036000830152610ec481610e88565b9050919050565b7f4e487b7100000000000000000000000000000000000000000000000000000000600052601160045260246000fd5b6000610f0582610d1e565b9150610f1083610d1e565b9250828201905080821115610f2857610f27610ecb565b5b92915050565b7f77696e646f77206973206e6f742079657420636c6f7365640000000000000000600082015250565b6000610f64601883610e28565b9150610f6f82610f2e565b602082019050919050565b60006020820190508181036000830152610f9381610f57565b9050919050565b7f54617267657420697320726561636865642e0000000000000000000000000000600082015250565b6000610fd0601283610e28565b9150610fdb82610f9a565b602082019050919050565b60006020820190508181036000830152610fff81610fc3565b9050919050565b7f7468657265206973206e6f2066756e6420666f7220796f750000000000000000600082015250565b600061103c601883610e28565b915061104782611006565b602082019050919050565b6000602082019050818103600083015261106b8161102f565b9050919050565b600081905092915050565b50565b600061108d600083611072565b91506110988261107d565b600082019050919050565b60006110ae82611080565b9150819050919050565b7f7472616e73666572207478206661696c65640000000000000000000000000000600082015250565b60006110ee601283610e28565b91506110f9826110b8565b602082019050919050565b6000602082019050818103600083015261111d816110e1565b9050919050565b7f546172676574206973206e6f7420726561636865640000000000000000000000600082015250565b600061115a601583610e28565b915061116582611124565b602082019050919050565b600060208201905081810360008301526111898161114d565b9050919050565b7f53656e64206d6f72652045544800000000000000000000000000000000000000600082015250565b60006111c6600d83610e28565b91506111d182611190565b602082019050919050565b600060208201905081810360008301526111f5816111b9565b9050919050565b7f77696e646f7720697320636c6f73656400000000000000000000000000000000600082015250565b6000611232601083610e28565b915061123d826111fc565b602082019050919050565b6000602082019050818103600083015261126181611225565b9050919050565b600069ffffffffffffffffffff82169050919050565b61128781611268565b811461129257600080fd5b50565b6000815190506112a48161127e565b92915050565b6112b381610d52565b81146112be57600080fd5b50565b6000815190506112d0816112aa565b92915050565b6000815190506112e581610d86565b92915050565b600080600080600060a0868803121561130757611306610bea565b5b600061131588828901611295565b9550506020611326888289016112c1565b9450506040611337888289016112d6565b9350506060611348888289016112d6565b925050608061135988828901611295565b9150509295509295909350565b7f596f7520646f206e6f742068617665207065726d697373696f6e20746f20636160008201527f6c6c20746869732066756e6374696f6e00000000000000000000000000000000602082015250565b60006113c2603083610e28565b91506113cd82611366565b604082019050919050565b600060208201905081810360008301526113f1816113b5565b9050919050565b600061140382610d1e565b915061140e83610d1e565b925082820261141c81610d1e565b9150828204841483151761143357611432610ecb565b5b5092915050565b7f4e487b7100000000000000000000000000000000000000000000000000000000600052601260045260246000fd5b600061147482610d1e565b915061147f83610d1e565b92508261148f5761148e61143a565b5b82820490509291505056fea26469706673582212203a069ad3c4a731150db27812d55d682ea70e07c2b86eed26d7f511a1dda785a564736f6c634300081c0033",
  "devdoc": {
    "kind": "dev",
    "methods": {},
    "version": 1
  },
  "userdoc": {
    "kind": "user",
    "methods": {},
    "version": 1
  },
  "storageLayout": {
    "storage": [
      {
        "astId": 53,
        "contract": "contracts/FundMe.sol:FundMe",
        "label": "fundersToAmount",
        "offset": 0,
        "slot": "0",
        "type": "t_mapping(t_address,t_uint256)"
      },
      {
        "astId": 63,
        "contract": "contracts/FundMe.sol:FundMe",
        "label": "dataFeed",
        "offset": 0,
        "slot": "1",
        "type": "t_contract(AggregatorV3Interface)45"
      },
      {
        "astId": 72,
        "contract": "contracts/FundMe.sol:FundMe",
        "label": "owner",
        "offset": 0,
        "slot": "2",
        "type": "t_address"
      },
      {
        "astId": 74,
        "contract": "contracts/FundMe.sol:FundMe",
        "label": "deploymentTimestamp",
        "offset": 0,
        "slot": "3",
        "type": "t_uint256"
      },
      {
        "astId": 76,
        "contract": "contracts/FundMe.sol:FundMe",
        "label": "lockTime",
        "offset": 0,
        "slot": "4",
        "type": "t_uint256"
      },
      {
        "astId": 78,
        "contract": "contracts/FundMe.sol:FundMe",
        "label": "erc20Addr",
        "offset": 0,
        "slot": "5",
        "type": "t_address"
      },
      {
        "astId": 80,
        "contract": "contracts/FundMe.sol:FundMe",
        "label": "getFundSuccess",
        "offset": 20,
        "slot": "5",
        "type": "t_bool"
      }
    ],
    "types": {
      "t_address": {
        "encoding": "inplace",
        "label": "address",
        "numberOfBytes": "20"
      },
      "t_bool": {
        "encoding": "inplace",
        "label": "bool",
        "numberOfBytes": "1"
      },
      "t_contract(AggregatorV3Interface)45": {
        "encoding": "inplace",
        "label": "contract AggregatorV3Interface",
        "numberOfBytes": "20"
      },
      "t_mapping(t_address,t_uint256)": {
        "encoding": "mapping",
        "key": "t_address",
        "label": "mapping(address => uint256)",
        "numberOfBytes": "32",
        "value": "t_uint256"
      },
      "t_uint256": {
        "encoding": "inplace",
        "label": "uint256",
        "numberOfBytes": "32"
      }
    }
  }
}